:1000000045C0000060C000005EC000005CC0000091
:100010005AC0000058C0000056C0000054C0000084
:1000200052C0000050C000004EC000004CC0000094
:100030004AC0000048C0000046C0000044C00000A4
:1000400042C0000040C0000056C200003CC000009A
:100050003AC0000038C0000036C0000034C00000C4
:1000600032C0000030C000002EC000002CC00000D4
:100070002AC0000028C0000026C0000024C00000E4
:1000800022C0000020C000001EC0000011241FBEBE
:10009000CFEFD0E1DEBFCDBF11E0A0E0B1E0EEE7F1
:1000A000FDE000E00BBF02C007900D92AA33B1073C
:1000B000D9F72AE0AAE3B1E001C01D92A63AB2073F
:1000C000E1F70FD25AC69CCF9DEC899F912D112448
:1000D000969596959695392F330F232F220F220F41
:1000E000230F821B30E1939F800D11240895382F38
:1000F0003F70982F92959F70990F292F220F220FF2
:10010000892F820F830F0895E1E6F0E08081887FD8
:1001100080838081876080830895E2E6F0E08081BB
:100120008E7F808380818160808380818E7F8083C9
:100130000895EF92FF921F93CF93DF937C01E1E646
:10014000F0E080818D7F8083C0E0D0E010E010C0BF
:10015000019B09C081E090E00C2E02C0880F991F1E
:100160000A94E2F7182BC730D10509F0D6DF2196A3
:10017000C830D1056CF3F7011083DF91CF911F9147
:10018000FF90EF9008951F93CF93DF93182FE1E630
:10019000F0E0808182608083C0E0D0E017C0812FD2
:1001A00090E00C2E02C0959587950A94E2F780FFA7
:1001B00006C0E2E6F0E080818260808305C0E2E66E
:1001C000F0E080818D7F8083A8DF2196C830D10543
:1001D00034F3DF91CF911F9108950F931F93CF9325
:1001E000DF931F92CDB7DEB7198202E610E0F80167
:1001F0009081946090838F5FC6DFCE01019699DF76
:10020000F80180818B7F8083898171DF0F90DF917E
:10021000CF911F910F910895CF93DF93EC0180E868
:10022000DCDF888382E8D9DF898384E8D6DF8A83AC
:10023000DF91CF910895CF93DF93EC0186E8CDDF76
:100240008B8388E8CADF8C838AE8C7DF8D838CE8DC
:10025000C4DF8E83DF91CF9108951F93CF93DF93F7
:10026000162FC2E6D0E09881946098838CDF812FAE
:100270002BDF89DF88818B7F8883DF91CF911F916E
:100280000895CF93DF93EC01688180E8E6DF698110
:1002900082E8E3DF6A8184E8E0DF6B8186E8DDDF06
:1002A0006C8188E8DADF6D818AE8D7DF6E818CE8BF
:1002B000D4DFDF91CF9108950F931F93CF93DF93F6
:1002C000CDB7DEB762970FB6F894DEBF0FBECDBFD5
:1002D000DC018B0119821A821B821C821D821E8204
:1002E0001F82188619861A861B861C861D861E8606
:1002F0001F86188A198A1A8A20E030E065C02230E9
:10030000310564F4FD01E40FF51F8081E1E0F0E0C8
:10031000EC0FFD1FE20FF31F808354C02430310522
:1003200074F4FD01E40FF51F8081F901329744E078
:1003300050E04C0F5D1FE40FF51F808343C0263053
:10034000310574F4FD01E40FF51F8081F901349744
:1003500047E050E04C0F5D1FE40FF51F808332C073
:100360002830310574F4FD01E40FF51F8081F90197
:1003700036974AE050E04C0F5D1FE40FF51F808375
:1003800021C02A30310574F4FD01E40FF51F80818E
:10039000F90138974DE050E04C0F5D1FE40FF51F59
:1003A000808310C02C3031056CF4FD01E40FF51F83
:1003B0008081F9013A9740E150E04C0F5D1FE40F56
:1003C000F51F80832F5F3F4FFD0101900020E9F76B
:1003D0003197EA1BFB0BA9012E173F0708F48FCFBB
:1003E000CE010196D7D1F8018683CE010496D2D1F1
:1003F000F8018483CE010796CDD1F8018383CE0125
:100400000A96C8D1F8018283CE010D96C3D1F801B6
:100410008183CE014096BED1F8018083C80131DFCF
:1004200062960FB6F894DEBF0FBECDBFDF91CF91BD
:100430001F910F910895E2E6F0E08081887F80832C
:100440008FE39FE10197F1F700C000000895CF937B
:10045000DF93CDB7DEB72B970FB6F894DEBF0FBE94
:10046000CDBF52DEE8DFCE0101960BDF80E191E0E7
:100470009B878A87BE016F5F7F4FCE010A96D4D0DB
:10048000CE010196C9DECE010196D5DE2C819D817B
:100490008F811F922F931F929F931F928F9387E1BB
:1004A00091E09F938F93A9D129819A818B811F928B
:1004B0002F931F929F931F928F9387E291E09F93B8
:1004C0008F939BD12FEF83ED90E32150804090409C
:1004D000E1F700C000000FB6F894DEBF0FBECDBF3D
:1004E000C9CF93D082E091E09093A30A8093A20AAF
:1004F0007894ADDFFFCF1F920F920FB60F921124A9
:100500000BB60F922F933F934F935F936F937F930D
:100510008F939F93AF93BF93EF93FF93CF93DF930B
:100520001F92CDB7DEB78CB1898380913E01909147
:100530003F0101962EE130E0B90105D1FC01809127
:100540003C0190913D01B901FED0E817F90709F48B
:1005500046C089818A3019F089818D3021F520913A
:100560003E0130913F0180913A0190913B0140E57D
:10057000429FF001439FF00D1124E05CFE4FE80F15
:10058000F91F108210923B0110923A0180913E01B6
:1005900090913F0101966EE170E0D5D090933F01BC
:1005A00080933E011CC060913E0170913F0180919B
:1005B0003A0190913B019C012F5F3F4F30933B01EB
:1005C00020933A01498150E5569F9001579F300D85
:1005D0001124205C3E4FF901E80FF91F40830F9072
:1005E000DF91CF91FF91EF91BF91AF919F918F914B
:1005F0007F916F915F914F913F912F910F900BBE23
:100600000F900FBE0F901F901895109290008FECD6
:1006100089B98BB182608BB98AB188698AB908952A
:100620005D9BFECF8CB90895CF92DF92EF92FF923F
:100630000F931F93CF93DF9340913C0150913D0165
:1006400020913E0130913F014217530709F456C0F3
:100650007B016C0180913C0190913D0140E5489FF8
:100660009001499F300D1124205C3E4F3F932F9302
:1006700087E391E09F938F93C0D00F900F900F90DE
:100680000F90C0E0D0E037C0FE01EE0FFF1FEC0D71
:10069000FD1D60817181FB0101900020E9F7319718
:1006A0008F01061B170B20913C0130913D0140E565
:1006B000429FC001439F900D1124A801805C9E4F72
:1006C00086D0892BB9F420913C0130913D0140E561
:1006D000429FC001439F900D1124805C9E4FCC0F20
:1006E000DD1FC050DF4FE881F981B701800F911FF6
:1006F000099504C021961C161D0634F680913C0114
:1007000090913D01019690933D0180933C01E0E47E
:10071000F1E001900020E9F73197E054F140809139
:100720003C0190913D018E179F0720F010923D01F2
:1007300010923C01DF91CF911F910F91FF90EF90AC
:10074000DF90CF90089597FB072E16F4009406D003
:1007500077FD08D00BD007FC05D03EF4909581952D
:100760009F4F0895709561957F4F0895AA1BBB1BFD
:1007700051E107C0AA1FBB1FA617B70710F0A61BA1
:10078000B70B881F991F5A95A9F780959095BC01C2
:10079000CD010895FC0188279927E8942191203202
:1007A000E9F3293010F02E30C8F32B3239F02D3216
:1007B00031F4689403C019D0820F911D2191205308
:1007C0002A30C8F31EF4909581959F4F0895FB0140
:1007D000DC014150504030F08D910190801919F4A6
:1007E0000020B9F7881B990B08957AE0979F902D08
:1007F000879F802D910D11240895CF93DF93CDB75E
:10080000DEB7AE014B5F5F4FFA0161917191AF01AD
:100810008091A20A9091A30A03D0DF91CF9108950D
:100820002F923F924F925F926F927F928F929F9200
:10083000AF92BF92CF92DF92EF92FF920F931F93EE
:10084000CF93DF93CDB7DEB72B970FB6F894DEBF0B
:100850000FBECDBF6C017B018A01FC01178216829D
:10086000838181FFBFC1CE0101963C01F6019381D6
:10087000F70193FD859193FF81917F01882309F40E
:10088000ADC1853239F493FD859193FF81917F014C
:10089000853221F4B60190E0D6D1E8CF912C212CFD
:1008A000312CFFE1F315D8F08B3279F038F4803237
:1008B00079F08332A1F4232D20611DC08D3261F0C7
:1008C000803369F4232D216016C0832D8260382E79
:1008D000E32DE4603E2E2AC0F32DF8601DC037FCE6
:1008E0002DC020ED280F2A3040F08E32B9F436FCAE
:1008F00075C1232D2064322E19C036FE06C08AE051
:10090000989E200D1124922E11C0EAE02E9E200DFB
:100910001124222EF32DF0623F2E08C08C3621F4D4
:10092000832D8068382E02C0883641F4F70193FD8C
:10093000859193FF81917F018111B3CF982F9F7D86
:100940009554933028F40C5F1F4F9FE399830DC09B
:10095000833631F0833771F0833509F055C020C0FC
:10096000F801808189830E5F1F4F88248394912C26
:10097000530112C02801F2E04F0E511CF801A08073
:10098000B18036FE03C0692D70E002C06FEF7FEFCB
:10099000C5014ED14C018201F32DFF773F2E15C0CA
:1009A000280122E0420E511CF801A080B18036FEE1
:1009B00003C0692D70E002C06FEF7FEFC5012DD13C
:1009C0004C01F32DF0683F2E820133FC19C0822DBB
:1009D00090E088169906A0F4B60180E290E033D149
:1009E0002A94F5CFF50137FC859137FE81915F019F
:1009F000B60190E028D121102A9421E0821A9108B2
:100A00008114910479F7E1C0843611F0893639F503
:100A1000F80137FE07C060817181828193810C5F8C
:100A20001F4F08C060817181072E000C880B990B45
:100A30000E5F1F4FF32DFF763F2E97FF09C0909555
:100A40008095709561957F4F8F4F9F4FF0683F2E37
:100A50002AE030E0A30133D1882E861844C08537C0
:100A600031F4232D2F7EB22E2AE030E025C0932DC5
:100A7000997FB92E8F36C1F018F4883579F0AEC061
:100A8000803719F0883721F0A9C0E92FE061BE2E28
:100A9000B4FE0DC0FB2DF460BF2E09C034FE0AC0A9
:100AA000292F2660B22E06C028E030E005C020E1E4
:100AB00030E002C020E132E0F801B7FE07C06081FB
:100AC0007181828193810C5F1F4F06C060817181AB
:100AD00080E090E00E5F1F4FA301F1D0882E8618B2
:100AE000FB2DFF773F2E36FE0DC0232D2E7FA22E2D
:100AF000891458F434FE0BC032FC09C0832D8E7E5D
:100B0000A82E05C0B82CA32C03C0B82C01C0B92C4A
:100B1000A4FE0FC0FE01E80DF11D8081803321F499
:100B20009A2D997EA92E09C0A2FE06C0B394B39453
:100B300004C08A2D867809F0B394A3FC10C0A0FEEF
:100B400006C0B21480F4280C922C9B180DC0B2146D
:100B500058F4B60180E290E076D0B394F8CFB214A6
:100B600018F42B1802C0982C212CA4FE0FC0B6013B
:100B700080E390E068D0A2FE16C0A1FC03C088E725
:100B800090E002C088E590E0B6010CC08A2D86781E
:100B900051F0A1FE02C08BE201C080E2A7FC8DE211
:100BA000B60190E050D0891430F4B60180E390E0B3
:100BB0004AD09A94F8CF8A94F301E80DF11D808110
:100BC000B60190E040D08110F6CF222009F44ECE3D
:100BD000B60180E290E037D02A94F7CFF601868103
:100BE000978102C08FEF9FEF2B960FB6F894DEBF70
:100BF0000FBECDBFDF91CF911F910F91FF90EF906E
:100C0000DF90CF90BF90AF909F908F907F906F902C
:100C10005F904F903F902F900895FC010590615098
:100C200070400110D8F7809590958E0F9F1F089502
:100C3000FC016150704001900110D8F780959095AB
:100C40008E0F9F1F08950F931F93CF93DF93FB0188
:100C5000238121FD03C08FEF9FEF2CC022FF16C020
:100C600046815781248135814217530744F4A0817E
:100C7000B1819D012F5F3F4F318320838C9326816B
:100C800037812F5F3F4F3783268314C08B01EC01E0
:100C9000FB010084F185E02D0995892BE1F6D8014F
:100CA00016968D919C911797019617969C938E930B
:100CB0001697CE01DF91CF911F910F910895FA0100
:100CC000AA27283051F1203181F1E8946F936E7F8B
:100CD0006E5F7F4F8F4F9F4FAF4FB1E03ED0B4E07C
:100CE0003CD0670F781F891F9A1FA11D680F791FBD
:100CF0008A1F911DA11D6A0F711D811D911DA11DCE
:100D000020D009F468943F912AE0269F11243019DD
:100D1000305D3193DEF6CF010895462F4770405D78
:100D20004193B3E00FD0C9F7F6CF462F4F70405D27
:100D30004A3318F0495D31FD4052419302D0A9F782
:100D4000EACFB4E0A6959795879577956795BA957C
:100D5000C9F700976105710508959B01AC010A2E42
:100D600006945795479537952795BA95C9F7620F19
:0E0D7000731F841F951FA01D0895F894FFCFD8
:100D7E005C010000000200000000100300000000F3
:100D8E0073657472746300444154453A2025642D92
:100D9E0025642D25640A0054494D453A2025642DBD
:0A0DAE0025642D25640A002573005A
:00000001FF
