S01D000030372E4D595F4C45445F50574D5F434F4E54524F4C2E73726563C5
S113000045C0000060C000005EC000005CC000008D
S11300105AC0000058C0000056C0000054C0000080
S113002052C0000050C000004EC000004CC0000090
S11300304AC0000048C0000046C0000044C00000A0
S113004047C0000040C000003EC000003CC00000AB
S11300503AC0000038C0000036C0000034C00000C0
S113006032C0000030C000002EC000002CC00000D0
S11300702AC0000028C0000026C0000024C00000E0
S113008022C0000020C000001EC0000011241FBEBA
S1130090CFEFD0E1DEBFCDBF11E0A0E0B1E0E2E9F7
S11300A0F1E000E00BBF02C007900D92A030B10751
S11300B0D9F721E0A0E0B1E001C01D92A430B2075D
S11300C0E1F74DD064C09CCF8FEF8ABB1BBA089573
S11300D01F920F920FB60F9211248F939F93AF9399
S11300E0BF9386E082BF8091000190910101A091AD
S11300F00201B09103010196A11DB11D809300017D
S113010090930101A0930201B0930301BF91AF91B9
S11301109F918F910F900FBE0F901F90189586E0BE
S113012082BF83B7887F83BF83B7846083BF87B769
S1130130816087BF08952FEF2BBB20E030E00AC019
S1130140821793070CF41BBA4AE64A95F1F700C0EC
S11301502F5F3F4F2F3F310599F394F30895DFDF6D
S1130160B3DF8FEF8ABB789401E010E0C0E0D0E009
S113017002C00FEF1FEFCE01DEDFC00FD11F2097AB
S113018011F401E010E0CF3FD105A9F7F2CFF894C4
S1050190FFCF9B
S9030000FC
