:1000000045C0000060C000005EC000005CC0000091
:100010005AC0000058C0000056C0000054C0000084
:1000200052C0000050C00000CDC200004CC0000013
:100030004AC0000048C0000046C0000044C00000A4
:1000400042C0000040C000003EC000003CC00000B4
:100050003AC0000038C0000036C0000034C00000C4
:1000600032C0000030C000002EC000002CC00000D4
:100070002AC0000028C0000026C0000024C00000E4
:1000800022C0000020C000001EC0000011241FBEBE
:10009000CFEFD0E1DEBFCDBF11E0A0E0B1E0ECE1F9
:1000A000F8E000E00BBF02C007900D92AC30B10742
:1000B000D9F721E0ACE0B1E001C01D92A533B20751
:1000C000E1F701D3A9C39CCF81B3877881BB0895A1
:1000D000CF92DF92EF92FF9220B3422F50E021E0C7
:1000E00030E002C0220F331F6A95E2F72423352344
:1000F00040912C0150912D0160912E0170912F01A2
:10010000FC01EE0FFF1FEE0FFF1FE05FFE4FC080F0
:10011000D180E280F3804C195D096E097F094F3070
:1001200051056105710598F140912C0150912D0107
:1001300060912E0170912F01FC01EE0FFF1FEE0F59
:10014000FF1FE05FFE4F408351836283738321155D
:10015000310571F0FC01E45FFE4F4081411108C0A0
:10016000FC01E45FFE4F21E0208380E090E017C0B7
:10017000FC01E45FFE4F4081413061F4232B69F4C0
:10018000FC01E45FFE4F108281E090E008C080E057
:1001900090E005C080E090E002C080E090E0FF9039
:1001A000EF90DF90CF9008958FEF84BB87B3806F7F
:1001B00087BB15BA0895CF92DF92EF92FF92CF934B
:1001C000DF93CDB7DEB72B970FB6F894DEBF0FBE27
:1001D000CDBF9C019BE0E0E0F1E0DE0111960190D3
:1001E0000D929A95E1F72115310509F096C080919D
:1001F0002201909123018130910531F11CF4892B6A
:1002000049F0B4C18230910509F43FC0039709F465
:1002100063C0ACC18FEF88BB609130017091310138
:1002200080913201909133012AE030E040E050E0CB
:10023000D1D2E1E0F0E0EC0FFD1FE60FF71F808167
:1002400085BB8FE788BB92C18FEF88BB609130017F
:100250007091310180913201909133012AE030E0B8
:1002600040E050E0B7D2CA01B90126E030E040E0FA
:1002700050E0B0D2E1E0F0E0EC0FFD1FE60FF71F19
:10028000808185BB8FEB88BB71C18FEF88BB60918C
:1002900030017091310180913201909133012CE352
:1002A00030E040E050E096D2CA01B9012AE030E0E7
:1002B00040E050E08FD2E1E0F0E0EC0FFD1FE60FF0
:1002C000F71F90818091340187958827879589272A
:1002D00085BB8FED88BB4AC18FEF88BB6091300131
:1002E00070913101809132019091330128E532E023
:1002F00040E050E06FD2CA01B90126E030E040E0B2
:1003000050E068D2E1E0F0E0EC0FFD1FE60FF71FD0
:10031000808185BB8FEE88BB29C12130310509F072
:100320008FC080912201909123018130910531F19C
:100330001CF4892B49F01AC18230910509F43FC0A1
:10034000039709F45DC012C18FEF88BB6091300143
:100350007091310180913201909133012AE030E0B7
:1003600040E050E037D2E1E0F0E0EC0FFD1FE60F97
:10037000F71F808185BB8FE788BBF8C08FEF88BBF4
:10038000609130017091310180913201909133017F
:100390002AE030E040E050E01DD2CA01B90126E079
:1003A00030E040E050E016D2E1E0F0E0EC0FFD1F5D
:1003B000E60FF71F808185BB8FEB88BBD7C08FEF1F
:1003C00088BB80912001909121018330910519F41F
:1003D00088E085BB12C08430910519F484E085BBA8
:1003E0000CC08530910519F482E085BB06C00697E4
:1003F00019F481E085BB01C015BA8FED88BBB6C08A
:100400008FEF88BB8091200190912101009719F412
:1004100080E285BB12C08130910519F480E185BB73
:100420000CC08230910519F488E085BB06C007979F
:1004300019F481E085BB01C015BA8FEE88BB96C068
:100440002230310509F092C0809122019091230160
:100450008130910581F11CF4892B49F087C08230ED
:10046000910509F449C0039709F460C07FC08FEF7C
:1004700088BB609128017091290180912A01909197
:100480002B010F2EFAE0CF2ED12CE12CF12CF02DE8
:10049000A70196019FD1CA01B901A70196019AD17E
:1004A000E1E0F0E0EC0FFD1FE60FF71F808185BB58
:1004B0008FE788BB5BC08FEF88BB6091280170918C
:1004C000290180912A0190912B0124E630E040E03F
:1004D00050E080D1CA01B9012AE030E040E050E0AC
:1004E00079D1E1E0F0E0EC0FFD1FE60FF71F80810E
:1004F00085BB8FEB88BB3AC08FEF88BB6091300122
:100500007091310180913201909133012AE030E005
:1005100040E050E05FD1E1E0F0E0EC0FFD1FE60FBE
:10052000F71F808185BB8FED88BB20C08FEF88BB14
:1005300060913001709131018091320190913301CD
:100540002AE030E040E050E045D1CA01B90126E0A0
:1005500030E040E050E03ED1E1E0F0E0EC0FFD1F84
:10056000E60FF71F808185BB8FEE88BB809122014B
:1005700090912301019683709078992324F4019738
:100580008C6F9F6F0196909323018093220180913D
:10059000300190913101A0913201B0913301877007
:1005A000992790932101809320012B960FB6F89400
:1005B000DEBF0FBECDBFDF91CF91FF90EF90DF90F8
:1005C000CF9008951F920F920FB60F9211248F9320
:1005D0009F93AF93BF9382EC84BD80912C01909147
:1005E0002D01A0912E01B0912F010196A11DB11DE9
:1005F00080932C0190932D01A0932E01B0932F0195
:100600008091240190912501029731F48091260177
:1006100090912701019799F48091280190912901E7
:10062000A0912A01B0912B010196A11DB11D8093CB
:10063000280190932901A0932A01B0932B01BF9127
:10064000AF919F918F910F900FBE0F901F901895B3
:10065000B2DD8091280190912901A0912A01B091E9
:100660002B01883E9340A105B10510F1109228019D
:100670001092290110922A0110922B0180913001D1
:1006800090913101A0913201B09133010196A11DE9
:10069000B11D8093300190933101A0933201B0934A
:1006A00033019091340181E0911180E08093340115
:1006B000089582EC84BD15BC84E085BD87B7806455
:1006C00087BF7894089570DDFFDCF3DF6091260129
:1006D000709127018091240190912501B9DF63E099
:1006E00070E080E090E0F4DC892BA1F11092280109
:1006F0001092290110922A0110922B0110923001C0
:100700001092310110923201109233018091240134
:100710009091250101969093250180932401809169
:10072000240190912501039721F410922501109244
:1007300024018091240190912501029729F41092BF
:1007400027011092260106C081E090E090932701D6
:100750008093260164E070E081E090E0B9DC892BB1
:10076000A1F08091240190912501029771F42091CC
:1007700026013091270181E090E0232B11F080E0E9
:1007800090E0909327018093260165E070E082E07D
:1007900090E09EDC892B09F499CF10922C011092E5
:1007A0002D0110922E0110922F0110923001109203
:1007B00031011092320110923301109228011092EF
:1007C000290110922A0110922B01109227011092F8
:1007D00026017CCFA1E21A2EAA1BBB1BFD010DC076
:1007E000AA1FBB1FEE1FFF1FA217B307E407F507E1
:1007F00020F0A21BB30BE40BF50B661F771F881FBD
:10080000991F1A9469F760957095809590959B0152
:0C081000AC01BD01CF010895F894FFCFAA
:0C081C003F065B4F666D7D277F67800004
:00000001FF
