S00F000030342E554152542E7372656347
S113000045C0000060C000005EC000005CC000008D
S11300105AC0000058C0000056C0000054C0000080
S113002052C0000050C000004EC000004CC0000090
S11300304AC0000048C0000046C0000044C00000A0
S113004099C1000040C00000E9C100003CC00000AC
S11300503AC0000038C0000036C0000034C00000C0
S113006032C0000030C000002EC000002CC00000D0
S11300702AC0000028C0000026C0000024C00000E0
S113008022C0000020C000001EC0000011241FBEBA
S1130090CFEFD0E1DEBFCDBF11E0A0E0B1E0E2E000
S11300A0FCE000E00BBF02C007900D92AA39B10733
S11300B0D9F724E0AAE9B1E001C01D92A83DB20736
S11300C0E1F78BD19CC59CCF8091A8019091A901A7
S11300D0A091AA01B091AB0184369105A105B105A7
S11300E018F11092A8011092A9011092AA0110927D
S11300F0AB0181E090E00090A40102C0880F991F39
S11301000A94E2F78BBB8091A4019091A50101961A
S113011087709078992324F40197886F9F6F0196D4
S11301209093A5018093A40108958091A8019091D2
S1130130A901A091AA01B091AB0184369105A10552
S1130140B10518F11092A8011092A9011092AA0108
S11301501092AB0180E890E00090A20102C0959556
S113016087950A94E2F78BBB8091A2019091A30139
S1130170019687709078992324F40197886F9F6F74
S113018001969093A3018093A20108958091A80100
S11301909091A901A091AA01B091AB018436910577
S11301A0A105B10528F11092A8011092A90110929D
S11301B0AA011092AB0181E090E00090A00102C07E
S11301C0880F991F0A94E2F79BB3892B8BBB80910C
S11301D0A0019091A101019687709078992324F44D
S11301E00197886F9F6F01969093A1018093A0015E
S11301F008958091A8019091A901A091AA01B091BC
S1130200AB0184369105A105B10528F11092A8012E
S11302101092A9011092AA011092AB0180E890E01B
S113022000909E0102C0959587950A94E2F79BB3CE
S1130230892B8BBB80919E0190919F0101968770C1
S11302409078992324F40197886F9F6F0196909377
S11302509F0180939E01089580919C0190919D013E
S1130260892B09F41BBA8091A8019091A901A0914E
S1130270AA01B091AB018C329140A105B10578F18E
S11302801092A8011092A9011092AA011092AB0138
S113029040919C0180E190E09C01042E02C0220F59
S11302A0331F0A94E2F788E090E002C095958795A1
S11302B04A95E2F7822B9BB3892B8BBB80919C01DF
S11302C090919D01019683709078992324F401976D
S11302D08C6F9F6F019690939D0180939C0108956C
S11302E080919A0190919B01892B11F48FEF8BBB24
S11302F08091A8019091A901A091AA01B091AB01AC
S11303008C329140A105B10580F11092A8011092A0
S1130310A9011092AA011092AB0140919A0180E8C0
S113032090E09C01042E02C0359527950A94E2F7CB
S113033081E090E002C0880F991F4A95E2F7822B72
S113034080959BB389238BBB80919A0190919B01EB
S1130350019683709078992324F401978C6F9F6F92
S1130360019690939B0180939A0108958FEF8ABB25
S11303701BBA08951F920F920FB60F9211248F93F8
S11303809F93AF93BF9386E082BF8091A801909121
S1130390A901A091AA01B091AB010196A11DB11DC3
S11303A08093A8019093A901A093AA01B093AB01F3
S11303B0BF91AF919F918F910F900FBE0F901F909F
S11303C0189586E082BF83B7887F83BF83B7846034
S11303D083BF87B7816087BF0895CF93DF93CDB77D
S11303E0DEB72C970FB6F894DEBF0FBECDBF8CE0FE
S11303F0EAE1F1E0DE01119601900D928A95E1F7B0
S1130400B5DFDFDF95D08CE091E09093D504809345
S1130410D4047894CE0101969AD0FCCF1F920F9207
S11304200FB60F9211240BB60F922F933F934F9355
S11304305F936F937F938F939F93AF93BF93EF9348
S1130440FF93CF93DF931F92CDB7DEB78CB189832F
S11304508091B0019091B10101962AE030E0B90198
S1130460D9D0FC018091AE019091AF01B901D2D0F5
S1130470E817F90709F446C089818A3019F089819F
S11304808D3021F52091B0013091B1018091AC0102
S11304909091AD0140E5429FF001439FF00D11247E
S11304A0EE54FE4FE80FF91F10821092AD01109226
S11304B0AC018091B0019091B10101966AE070E0C5
S11304C0A9D09093B1018093B0011CC06091B00198
S11304D07091B1018091AC019091AD019C012F5FAD
S11304E03F4F3093AD012093AC01498150E5569FB5
S11304F09001579F300D11242E543E4FF901E80FFF
S1130500F91F40830F90DF91CF91FF91EF91BF913D
S1130510AF919F918F917F916F915F914F913F9197
S11305202F910F900BBE0F900FBE0F901F90189538
S1130530109290008FEC89B98BB182608BB98AB12B
S113054088698AB908955D9BFECF8CB908950F938D
S11305501F93CF93DF938C012091AE013091AF01B3
S11305608091B0019091B1012817390709F441C075
S11305702091AE013091AF0140E5429FC001439FFD
S1130580900D11248E549E4F9F938F9387E991E091
S11305909F938F9374D00F900F900F900F90C0E0A3
S11305A0D0E024C0FE01EE0FFF1FE00FF11F6081B9
S11305B07181FB0101900020E9F73197AF01461BDF
S11305C0570B2091AE013091AF01E0E5E29FC001ED
S11305D0E39F900D11248E549E4F43D0892B29F410
S11305E0D093A701C093A60104C02196C630D105BB
S11305F0CCF2E091A601F091A701EE0FFF1FE050AD
S1130600FF4F0190F081E02D0995DF91CF911F916B
S11306100F91089597FB072E16F4009406D077FDEA
S113062008D00BD007FC05D03EF4909581959F4FE0
S11306300895709561957F4F0895AA1BBB1B51E1E6
S113064007C0AA1FBB1FA617B70710F0A61BB70B3E
S1130650881F991F5A95A9F780959095BC01CD01E3
S11306600895FB01DC014150504030F08D91019020
S1130670801919F40020B9F7881B990B0895CF93BA
S1130680DF93CDB7DEB7AE014B5F5F4FFA016191E7
S11306907191AF018091D4049091D50403D0DF917E
S11306A0CF9108952F923F924F925F926F927F92D3
S11306B08F929F92AF92BF92CF92DF92EF92FF926E
S11306C00F931F93CF93DF93CDB7DEB72B970FB65E
S11306D0F894DEBF0FBECDBF6C017B018A01FC0123
S11306E017821682838181FFBFC1CE0101963C012E
S11306F0F6019381F70193FD859193FF81917F0129
S1130700882309F4ADC1853239F493FD859193FFB3
S113071081917F01853221F4B60190E0D6D1E8CFF2
S1130720912C212C312CFFE1F315D8F08B3279F088
S113073038F4803279F08332A1F4232D20611DC076
S11307408D3261F0803369F4232D216016C0832D2E
S11307508260382EE32DE4603E2E2AC0F32DF8602B
S11307601DC037FC2DC020ED280F2A3040F08E32FA
S1130770B9F436FC75C1232D2064322E19C036FE1F
S113078006C08AE0989E200D1124922E11C0EAE042
S11307902E9E200D1124222EF32DF0623F2E08C030
S11307A08C3621F4832D8068382E02C0883641F4BB
S11307B0F70193FD859193FF81917F018111B3CF5F
S11307C0982F9F7D9554933028F40C5F1F4F9FE31F
S11307D099830DC0833631F0833771F0833509F086
S11307E055C020C0F801808189830E5F1F4F882483
S11307F08394912C530112C02801F2E04F0E511C36
S1130800F801A080B18036FE03C0692D70E002C0FB
S11308106FEF7FEFC5014ED14C018201F32DFF77BD
S11308203F2E15C0280122E0420E511CF801A08081
S1130830B18036FE03C0692D70E002C06FEF7FEF18
S1130840C5012DD14C01F32DF0683F2E820133FCFC
S113085019C0822D90E088169906A0F4B60180E2B2
S113086090E033D12A94F5CFF50137FC859137FE1A
S113087081915F01B60190E028D121102A9421E0F2
S1130880821A91088114910479F7E1C0843611F039
S1130890893639F5F80137FE07C06081718182819C
S11308A093810C5F1F4F08C060817181072E000C7B
S11308B0880B990B0E5F1F4FF32DFF763F2E97FF8A
S11308C009C090958095709561957F4F8F4F9F4F8C
S11308D0F0683F2E2AE030E0A30133D1882E861839
S11308E044C0853731F4232D2F7EB22E2AE030E028
S11308F025C0932D997FB92E8F36C1F018F4883511
S113090079F0AEC0803719F0883721F0A9C0E92FFB
S1130910E061BE2EB4FE0DC0FB2DF460BF2E09C0F5
S113092034FE0AC0292F2660B22E06C028E030E02B
S113093005C020E130E002C020E132E0F801B7FE5A
S113094007C060817181828193810C5F1F4F06C053
S11309506081718180E090E00E5F1F4FA301F1D0B0
S1130960882E8618FB2DFF773F2E36FE0DC0232DD3
S11309702E7FA22E891458F434FE0BC032FC09C019
S1130980832D8E7EA82E05C0B82CA32C03C0B82CB2
S113099001C0B92CA4FE0FC0FE01E80DF11D808139
S11309A0803321F49A2D997EA92E09C0A2FE06C097
S11309B0B394B39404C08A2D867809F0B394A3FC4D
S11309C010C0A0FE06C0B21480F4280C922C9B1810
S11309D00DC0B21458F4B60180E290E076D0B3941E
S11309E0F8CFB21418F42B1802C0982C212CA4FEB2
S11309F00FC0B60180E390E068D0A2FE16C0A1FC4F
S1130A0003C088E790E002C088E590E0B6010CC01E
S1130A108A2D867851F0A1FE02C08BE201C080E2EB
S1130A20A7FC8DE2B60190E050D0891430F4B601F1
S1130A3080E390E04AD09A94F8CF8A94F301E80DC9
S1130A40F11D8081B60190E040D08110F6CF2220C4
S1130A5009F44ECEB60180E290E037D02A94F7CF65
S1130A60F6018681978102C08FEF9FEF2B960FB618
S1130A70F894DEBF0FBECDBFDF91CF911F910F91D0
S1130A80FF90EF90DF90CF90BF90AF909F908F90AA
S1130A907F906F905F904F903F902F900895FC014E
S1130AA00590615070400110D8F7809590958E0F95
S1130AB09F1F0895FC016150704001900110D8F708
S1130AC0809590958E0F9F1F08950F931F93CF933A
S1130AD0DF93FB01238121FD03C08FEF9FEF2CC027
S1130AE022FF16C04681578124813581421753075E
S1130AF044F4A081B1819D012F5F3F4F3183208356
S1130B008C93268137812F5F3F4F3783268314C010
S1130B108B01EC01FB010084F185E02D0995892B03
S1130B20E1F6D80116968D919C9117970196179628
S1130B309C938E931697CE01DF91CF911F910F91C5
S1130B400895FA01AA27283051F1203181F1E8945F
S1130B506F936E7F6E5F7F4F8F4F9F4FAF4FB1E0AC
S1130B603ED0B4E03CD0670F781F891F9A1FA11DA7
S1130B70680F791F8A1F911DA11D6A0F711D811DA8
S1130B80911DA11D20D009F468943F912AE0269F6D
S1130B9011243019305D3193DEF6CF010895462FCC
S1130BA04770405D4193B3E00FD0C9F7F6CF462FAD
S1130BB04F70405D4A3318F0495D31FD4052419316
S1130BC002D0A9F7EACFB4E0A695979587957795D3
S1130BD06795BA95C9F700976105710508959B015A
S1130BE0AC010A2E06945795479537952795BA95E3
S1130BF0C9F7620F731F841F951FA01D0895F894F1
S1050C00FFCF20
S1130C0264009500C600F9002C0170010000000286
S1130C1200000000A30200000000260138014B017D
S1130C2262017A0188016C65645F73686966745F46
S1130C326C6566745F6F6E006C65645F7368696689
S1130C42745F72696768745F6F6E006C65645F736A
S1130C52686966745F6C6566745F6B6565705F6F07
S1130C626E006C65645F73686966745F7269676855
S1130C72745F6B6565705F6F6E006C65645F666C54
S1130C826F7765725F6F6E006C65645F666C6F7719
S10D0C9265725F6F6666002573004B
S9030000FC
