:1000000045C0000062C0000060C000005EC000008B
:100010005CC000000C94980958C0000056C0000055
:1000200054C0000052C0000050C000004EC000008C
:100030004CC000004AC0000048C0000046C000009C
:100040000C947C0842C000000C94FF083EC00000E5
:100050003CC000003AC0000038C0000036C00000BC
:1000600034C0000032C0000030C000002EC00000CC
:100070002CC000002AC0000028C0000026C00000DC
:1000800024C0000022C0000020C0000011241FBEB8
:10009000CFEFD0E1DEBFCDBF11E0A0E0B1E0EAE2FA
:1000A000F1E200E00BBF02C007900D92AA32B10747
:1000B000D9F724E0AAE2B1E001C01D92A53CB20745
:1000C000E1F70E94C8080C9493109ACF81B3877807
:1000D00081BB0895CF92DF92EF92FF9220B3422F1F
:1000E00050E021E030E002C0220F331F6A95E2F7B2
:1000F000242335234091590150915A0160915B01AD
:1001000070915C01FC01EE0FFF1FEE0FFF1FE25D1F
:10011000FE4FC080D180E280F3804C195D096E09EA
:100120007F094F3051056105710598F140915901E2
:1001300050915A0160915B0170915C01FC01EE0FDE
:10014000FF1FEE0FFF1FE25DFE4F4083518362836E
:1001500073832115310571F0FC01E65DFE4F40818E
:10016000411108C0FC01E65DFE4F21E0208380E0E4
:1001700090E017C0FC01E65DFE4F4081413061F424
:10018000232B69F4FC01E65DFE4F108281E090E0D4
:1001900008C080E090E005C080E090E002C080E010
:1001A00090E0FF90EF90DF90CF9008958FEF84BBA9
:1001B00087B3806F87BB15BA0895CF93DF93CDB710
:1001C000DEB72B970FB6F894DEBF0FBECDBF8BE026
:1001D000E0E1F1E0DE01119601900D928A95E1F7E0
:1001E00080916B0190916C01009769F580914501B8
:1001F000909146018130910589F01CF4892B39F0EA
:1002000061C18230910589F00397B1F05BC18FEF36
:1002100088BB898185BB8FE788BB54C18FEF88BBC2
:10022000898185BB8FEB88BB4DC18FEF88BB8981EE
:1002300085BB8FED88BB46C18FEF88BB898185BBAD
:100240008FEE88BB3FC18130910509F067C0809176
:100250004501909146018130910579F11CF4892B7B
:1002600049F030C18230910509F44AC0039709F47E
:100270004EC028C18FEF88BB60915101709152012F
:1002800080915301909154012CE330E040E050E024
:100290000E94820DCA01B9012AE030E040E050E03E
:1002A0000E94820DE1E0F0E0EC0FFD1FE60FF71F6A
:1002B000808185BB8FE788BB05C18FEF88BB6091CC
:1002C000510170915201809153019091540128E5A0
:1002D00032E040E050E00E94820DCA01B90126E000
:1002E00030E040E050E00E94820DE1E0F0E0EC0FF1
:1002F000FD1FE60FF71F808185BB8FEB88BBE2C037
:100300008FEF88BB898185BB8FED88BBDBC08FEF0A
:1003100088BB8A8185BB8FEE88BBD4C082309105B3
:1003200009F067C0809145019091460181309105A7
:1003300079F11CF4892B49F0C5C08230910509F48C
:100340004AC0039709F44EC0BDC08FEF88BB6091CF
:100350004D0170914E0180914F01909150012CE31D
:1003600030E040E050E00E94820DCA01B9012AE06D
:1003700030E040E050E00E94820DE1E0F0E0EC0F60
:10038000FD1FE60FF71F808185BB8FE788BB9AC0F2
:100390008FEF88BB60914D0170914E0180914F01AC
:1003A0009091500128E532E040E050E00E94820D3B
:1003B000CA01B90126E030E040E050E00E94820D21
:1003C000E1E0F0E0EC0FFD1FE60FF71F808185BB39
:1003D0008FEB88BB77C08FEF88BB898185BB8FEDA2
:1003E00088BB70C08FEF88BB8B8185BB8FEE88BBCD
:1003F00069C0039709F066C080914501909146015C
:100400008130910579F11CF4892B49F05BC0823071
:10041000910509F44AC0039709F44EC053C08FEF09
:1004200088BB6091490170914A0180914B01909184
:100430004C012CE330E040E050E00E94820DCA0104
:10044000B9012AE030E040E050E00E94820DE1E096
:10045000F0E0EC0FFD1FE60FF71F808185BB8FE7F3
:1004600088BB30C08FEF88BB6091490170914A0111
:1004700080914B0190914C0128E532E040E050E042
:100480000E94820DCA01B90126E030E040E050E050
:100490000E94820DE1E0F0E0EC0FFD1FE60FF71F78
:1004A000808185BB8FEB88BB0DC08FEF88BB8981B6
:1004B00085BB8FED88BB06C08FEF88BB8C8185BB69
:1004C0008FEE88BB80914501909146010196837023
:1004D0009078992324F401978C6F9F6F01969093E5
:1004E0004601809345012B960FB6F894DEBF0FBEF0
:1004F000CDBFDF91CF9108950F931F93CF93DF93DB
:10050000CDB7DEB72B970FB6F894DEBF0FBECDBFC9
:100510002BE0E0E1F1E0DE01119601900D922A95C9
:10052000E1F74091590150915A0160915B0170913E
:100530005C010091410110914201209143013091F1
:100540004401401B510B620B730B483C5105610584
:100550007105C0F14091590150915A0160915B01C0
:1005600070915C01409341015093420160934301BB
:1005700070934401009791F42091400130E02F5F87
:100580003F4F27703078332334F421503109286FDE
:100590003F6F2F5F3F4F2093400114C08130910582
:1005A00089F42091400130E0295F3F4F2770307877
:1005B000332334F421503109286F3F6F2F5F3F4FB1
:1005C00020934001009709F0C4C280916901909185
:1005D0006A018130910509F0E7C080913E01909158
:1005E0003F018130910509F456C01CF4892B49F074
:1005F00061C58230910509F4A0C0039709F4B8C021
:1006000059C58091510190915201A0915301B0912F
:100610005401CC97A105B105D8F48FEF88BB609148
:1006200051017091520180915301909154012AE03F
:1006300030E040E050E00E94820DE1E0F0E0EC0F9D
:10064000FD1FE60FF71F808185BB8FE788BB32C592
:100650008FEF88BB609151017091520180915301DD
:10066000909154012CE330E040E050E00E94820D74
:10067000CA01B9012AE030E040E050E00E94820D5A
:10068000E1E0F0E0EC0FFD1FE60FF71F808185BB76
:100690008FE788BB0FC58091510190915201A091C5
:1006A0005301B0915401CC97A105B10518F58FEF16
:1006B00088BB6091510170915201809153019091DA
:1006C00054012AE030E040E050E00E94820DCA016F
:1006D000B90126E030E040E050E00E94820DE1E008
:1006E000F0E0EC0FFD1FE60FF71F808185BB8FEB5D
:1006F00088BBE0C48FEF88BB6091510170915201BB
:10070000809153019091540128E532E040E050E09F
:100710000E94820DCA01B90126E030E040E050E0BD
:100720000E94820DE1E0F0E0EC0FFD1FE60FF71FE5
:10073000808185BB8FEB88BBBDC48FEF88BB809168
:100740004001833019F488E085BB0FC0843011F478
:1007500085BB0BC0853019F482E085BB06C08630AE
:1007600019F481E085BB01C015BA8FED88BBA2C426
:100770008FEF88BB80914001811103C080E285BB6F
:1007800010C0813019F480E185BB0BC0823019F4B0
:1007900088E085BB06C0873019F481E085BB01C0C5
:1007A00015BA8FEE88BB86C48230910509F0E7C088
:1007B00080913E0190913F018130910509F456C02E
:1007C0001CF4892B49F076C48230910509F4A0C04D
:1007D000039709F4B8C06EC480914D0190914E0109
:1007E000A0914F01B0915001CC97A105B105D8F46B
:1007F0008FEF88BB60914D0170914E0180914F0148
:10080000909150012AE030E040E050E00E94820DDB
:10081000E1E0F0E0EC0FFD1FE60FF71F808185BBE4
:100820008FE788BB47C48FEF88BB60914D01709103
:100830004E0180914F01909150012CE330E040E057
:1008400050E00E94820DCA01B9012AE030E040E088
:1008500050E00E94820DE1E0F0E0EC0FFD1FE60F9A
:10086000F71F808185BB8FE788BB24C480914D0131
:1008700090914E01A0914F01B0915001CC97A105EC
:10088000B10518F58FEF88BB60914D0170914E0155
:1008900080914F01909150012AE030E040E050E01B
:1008A0000E94820DCA01B90126E030E040E050E02C
:1008B0000E94820DE1E0F0E0EC0FFD1FE60FF71F54
:1008C000808185BB8FEB88BBF5C38FEF88BB6091C0
:1008D0004D0170914E0180914F019091500128E59A
:1008E00032E040E050E00E94820DCA01B90126E0EA
:1008F00030E040E050E00E94820DE1E0F0E0EC0FDB
:10090000FD1FE60FF71F808185BB8FEB88BBD2C32D
:100910008FEF88BB80914001833019F488E085BB5C
:100920000FC0843011F485BB0BC0853019F482E010
:1009300085BB06C0863019F481E085BB01C015BABD
:100940008FED88BBB7C38FEF88BB809140018111C9
:1009500003C080E285BB10C0813019F480E185BB03
:100960000BC0823019F488E085BB06C0873019F4CB
:1009700081E085BB01C015BA8FEE88BB9BC303978E
:1009800009F098C380913E0190913F01813091051B
:1009900009F456C01CF4892B49F08CC382309105B0
:1009A00009F4A0C0039709F4B8C084C38091490139
:1009B00090914A01A0914B01B0914C01CC97A105B7
:1009C000B105D8F48FEF88BB6091490170914A015D
:1009D00080914B0190914C012AE030E040E050E0E2
:1009E0000E94820DE1E0F0E0EC0FFD1FE60FF71F23
:1009F000808185BB8FE788BB5DC38FEF88BB60912B
:100A0000490170914A0180914B0190914C012CE376
:100A100030E040E050E00E94820DCA01B9012AE0B6
:100A200030E040E050E00E94820DE1E0F0E0EC0FA9
:100A3000FD1FE60FF71F808185BB8FE788BB3AC398
:100A40008091490190914A01A0914B01B0914C01D4
:100A5000CC97A105B10518F58FEF88BB60914901CE
:100A600070914A0180914B0190914C012AE030E055
:100A700040E050E00E94820DCA01B90126E030E05A
:100A800040E050E00E94820DE1E0F0E0EC0FFD1F3D
:100A9000E60FF71F808185BB8FEB88BB0BC38FEF01
:100AA00088BB6091490170914A0180914B019091FE
:100AB0004C0128E532E040E050E00E94820DCA017E
:100AC000B90126E030E040E050E00E94820DE1E014
:100AD000F0E0EC0FFD1FE60FF71F808185BB8FEB69
:100AE00088BBE8C28FEF88BB80914001833019F446
:100AF00088E085BB0FC0843011F485BB0BC0853006
:100B000019F482E085BB06C0863019F481E085BB0C
:100B100001C015BA8FED88BBCDC28FEF88BB809125
:100B20004001811103C080E285BB10C0813019F4FF
:100B300080E185BB0BC0823019F488E085BB06C01C
:100B4000873019F481E085BB01C015BA8FEE88BBF0
:100B5000B1C2019709F0AEC28091690190916A011A
:100B60008130910509F0E0C080913E0190913F01F4
:100B70008130910509F453C01CF4892B49F09AC2C5
:100B80008230910509F499C0039709F4B1C092C26B
:100B90008091510190915201A0915301B091540163
:100BA000CC97A105B105D0F48FEF88BB60915101BE
:100BB0007091520180915301909154012AE030E0EC
:100BC00040E050E09FD7E1E0F0E0EC0FFD1FE60FC2
:100BD000F71F808185BB8FE788BB6CC28FEF88BB16
:100BE0006091510170915201809153019091540193
:100BF0002CE330E040E050E085D7CA01B9012AE09B
:100C000030E040E050E07ED7E1E0F0E0EC0FFD1F87
:100C1000E60FF71F808185BB8FE788BB4BC28091B1
:100C2000510190915201A0915301B0915401CC9780
:100C3000A105B10508F58FEF88BB60915101709156
:100C4000520180915301909154012AE030E040E03C
:100C500050E058D7CA01B90126E030E040E050E04A
:100C600051D7E1E0F0E0EC0FFD1FE60FF71F8081A8
:100C700085BB8FEB88BB1EC28FEF88BB6091510193
:100C800070915201809153019091540128E532E016
:100C900040E050E037D7CA01B90126E030E040E03B
:100CA00050E030D7E1E0F0E0EC0FFD1FE60FF71F5A
:100CB000808185BB8FEB88BBFDC18FEF88BB8091A6
:100CC0004001833019F488E085BB0FC0843011F4F3
:100CD00085BB0BC0853019F482E085BB06C0863029
:100CE00019F481E085BB01C015BA8FED88BBE2C164
:100CF0008FEF88BB80914001811103C080E285BBEA
:100D000010C0813019F480E185BB0BC0823019F42A
:100D100088E085BB06C0873019F481E085BB01C03F
:100D200015BA8FEE88BBC6C18230910509F0E0C0CC
:100D300080913E0190913F018130910509F453C0AB
:100D40001CF4892B49F0B6C18230910509F499C091
:100D5000039709F4B1C0AEC180914D0190914E014D
:100D6000A0914F01B0915001CC97A105B105D0F4ED
:100D70008FEF88BB60914D0170914E0180914F01C2
:100D8000909150012AE030E040E050E0BBD6E1E035
:100D9000F0E0EC0FFD1FE60FF71F808185BB8FE7AA
:100DA00088BB88C18FEF88BB60914D0170914E0167
:100DB00080914F01909150012CE330E040E050E0F1
:100DC000A1D6CA01B9012AE030E040E050E09AD64D
:100DD000E1E0F0E0EC0FFD1FE60FF71F808185BB1F
:100DE0008FE788BB67C180914D0190914E01A09122
:100DF0004F01B0915001CC97A105B10508F58FEFD7
:100E000088BB60914D0170914E0180914F0190918E
:100E100050012AE030E040E050E074D6CA01B90148
:100E200026E030E040E050E06DD6E1E0F0E0EC0F8D
:100E3000FD1FE60FF71F808185BB8FEB88BB3AC192
:100E40008FEF88BB60914D0170914E0180914F01F1
:100E50009091500128E532E040E050E053D6CA01BD
:100E6000B90126E030E040E050E04CD6E1E0F0E0AF
:100E7000EC0FFD1FE60FF71F808185BB8FEB88BB52
:100E800019C18FEF88BB80914001833019F488E04D
:100E900085BB0FC0843011F485BB0BC0853019F4BD
:100EA00082E085BB06C0863019F481E085BB01C0B5
:100EB00015BA8FED88BBFEC08FEF88BB80914001D3
:100EC000811103C080E285BB10C0813019F480E13C
:100ED00085BB0BC0823019F488E085BB06C0873023
:100EE00019F481E085BB01C015BA8FEE88BBE2C062
:100EF000039709F0DFC080913E0190913F0181305E
:100F0000910509F453C01CF4892B49F0D3C08230F9
:100F1000910509F499C0039709F4B1C0CBC0809141
:100F2000490190914A01A0914B01B0914C01CC979D
:100F3000A105B105D0F48FEF88BB60914901709194
:100F40004A0180914B0190914C012AE030E040E051
:100F500050E0D8D5E1E0F0E0EC0FFD1FE60FF71F01
:100F6000808185BB8FE788BBA5C08FEF88BB609170
:100F7000490170914A0180914B0190914C012CE301
:100F800030E040E050E0BED5CA01B9012AE030E0CF
:100F900040E050E0B7D5E1E0F0E0EC0FFD1FE60FD8
:100FA000F71F808185BB8FE788BB84C08091490192
:100FB00090914A01A0914B01B0914C01CC97A105B1
:100FC000B10508F58FEF88BB6091490170914A0126
:100FD00080914B0190914C012AE030E040E050E0DC
:100FE00091D5CA01B90126E030E040E050E08AD551
:100FF000E1E0F0E0EC0FFD1FE60FF71F808185BBFD
:101000008FEB88BB57C08FEF88BB6091490170910F
:101010004A0180914B0190914C0128E532E040E07B
:1010200050E070D5CA01B90126E030E040E050E060
:1010300069D5E1E0F0E0EC0FFD1FE60FF71F8081BE
:1010400085BB8FEB88BB36C08FEF88BB809140019A
:10105000833019F488E085BB0FC0843011F485BB60
:101060000BC0853019F482E085BB06C0863019F4C8
:1010700081E085BB01C015BA8FED88BB1BC08FEF27
:1010800088BB80914001811103C080E285BB10C004
:10109000813019F480E185BB0BC0823019F488E0FF
:1010A00085BB06C0873019F481E085BB01C015BA45
:1010B0008FEE88BB80913E0190913F010196837035
:1010C0009078992324F401978C6F9F6F01969093E9
:1010D0003F0180933E012B960FB6F894DEBF0FBE02
:1010E000CDBFDF91CF911F910F9108958FEF8ABBF4
:1010F0001BBA08951BBA08951F920F920FB60F9254
:1011000011248F939F93AF93BF9386E082BF80910A
:10111000590190915A01A0915B01B0915C01019637
:10112000A11DB11D8093590190935A01A0935B01B9
:10113000B0935C018091470190914801019799F427
:101140008091550190915601A0915701B09158019D
:101150000196A11DB11D8093550190935601A09356
:101160005701B0935801BF91AF919F918F910F900C
:101170000FBE0F901F90189586E082BF83B7887FBF
:1011800083BF83B7846083BF87B7816087BF0895BB
:10119000ADDF0CD80E946600EFDFBBD022D009D0B3
:1011A00080E091E09093C2048093C10478946DD262
:1011B000FECF82B1886282B9ABE8B0E08C918160E9
:1011C0008C93EAE8F0E08081886080838C9188606D
:1011D0008C938081836080831092830010928200C0
:1011E0000895E1E6F0E08081806C8083E2E6F0E043
:1011F00080818F73808380818064808308951F92B3
:101200000F920FB60F9211240BB60F922F933F93AC
:101210004F935F936F937F938F939F93AF93BF93FE
:10122000EF93FF93CF93DF931F92CDB7DEB78CB1CF
:101230008983809161019091620101962AE030E0FA
:10124000B9014DD4FC0180915F0190916001B90119
:1012500046D4E817F90709F446C089818A3019F0A5
:1012600089818D3021F52091610130916201809159
:101270005D0190915E0140E5429FF001439FF00DBA
:101280001124E359FE4FE80FF91F108210925E01FE
:1012900010925D01809161019091620101966AE076
:1012A00070E01DD490936201809361011CC0609135
:1012B00061017091620180915D0190915E019C01DC
:1012C0002F5F3F4F30935E0120935D01498150E5D0
:1012D000569F9001579F300D112423593E4FF9011D
:1012E000E80FF91F40830F90DF91CF91FF91EF91AD
:1012F000BF91AF919F918F917F916F915F914F912E
:101300003F912F910F900BBE0F900FBE0F901F902B
:101310001895109290008FEC89B98BB182608BB9CF
:101320008AB188698AB908955D9BFECF8CB908950A
:101330001F920F920FB60F9211240BB60F922F939C
:101340003F934F935F936F937F938F939F93AF934D
:10135000BF93EF93FF930C9B03C01DBC1CBC37C015
:101360006CB57DB580E090E0C9D220E034E244E77E
:1013700059E452D320E030E040E854E44DD320E07B
:1013800034E244E75BE421D288D270936601609333
:10139000650180916501909166016AE370E09FD3D9
:1013A0007F936F938BE191E09F938F938DE894E00F
:1013B0009F938F93DDD381E090E0909364018093BD
:1013C00063010F900F900F900F900F900F90FF916F
:1013D000EF91BF91AF919F918F917F916F915F91AD
:1013E0004F913F912F910F900BBE0F900FBE0F901A
:1013F0001F9018957FCE08957DDE81E08BBB089508
:1014000079DE82E08BBB089575DE84E08BBB0895A6
:1014100080916B0190916C0181309105A1F48091D4
:10142000510190915201A0915301B0915401CC9679
:10143000A11DB11D8093510190935201A0935301BE
:10144000B0935401089582309105A1F480914D012B
:1014500090914E01A0914F01B0915001CC96A11DE9
:10146000B11D80934D0190934E01A0934F01B09315
:1014700050010895039799F48091490190914A0190
:10148000A0914B01B0914C01CC96A11DB11D809350
:10149000490190934A01A0934B01B0934C010895E8
:1014A000CF93DF93EC0180910E0190910F0124D82E
:1014B0008091550190915601A0915701B09158012A
:1014C000883E9340A105B10508F47FC010925501F4
:1014D00010925601109257011092580180916701A5
:1014E000909168010196C130D105A9F44091510154
:1014F0005091520160915301709154014150510932
:101500006109710940935101509352016093530155
:10151000709354012EC0C230D105A9F440914D0101
:1015200050914E0160914F0170915001415051090D
:101530006109710940934D0150934E0160934F0131
:101540007093500116C02397A1F440914901509126
:101550004A0160914B0170914C0141505109610960
:1015600071094093490150934A0160934B01709374
:101570004C01019665E070E0B2D2909368018093CF
:101580006701892B11F581E090E020910E013091E7
:101590000F01232B11F080E090E090930F018093D6
:1015A0000E01E2E6F0E080818F73808380910E016E
:1015B00090910F01892B21F080818064808305C088
:1015C000E2E6F0E0808180688083DF91CF9108952A
:1015D0008091690190916A0181309105C1F481E0A7
:1015E00090E05EDF09DF8091510190915201A0915E
:1015F0005301B0915401892B8A2B8B2B09F044C0E5
:1016000082E090E090936A018093690108958230AE
:101610009105B9F482E090E043DFF2DE80914D0164
:1016200090914E01A0914F01B0915001892B8A2BCE
:101630008B2B51F583E090E090936A0180936901D0
:10164000089583309105A9F483E090E029DFDCDE82
:101650008091490190914A01A0914B01B0914C01B8
:10166000892B8A2B8B2B81F410926A0110926901CD
:101670000895892B49F41092480110924701BADE6F
:1016800010926C0110926B01089580914701909126
:101690004801892B19F40E94DD00ACDE80914701DE
:1016A00090914801019791F493DF809147019091C7
:1016B0004801892B39F08AEF90E090938300809362
:1016C000820004C0109283001092820063E070E0F8
:1016D00080E090E00E946A00892B09F447C0809165
:1016E000690190916A01892B89F110924801109249
:1016F0004701109251011092520110925301109221
:10170000540110924D0110924E0110924F0110920F
:1017100050011092490110924A0110924B0110920F
:101720004C011092550110925601109257011092DF
:101730005801109283001092820010926C01109256
:101740006B0110926A011092690110C080916B01C7
:1017500090916C01892B51F481E090E090934801C5
:101760008093470190936A018093690164E070E07F
:1017700081E090E00E946A00892BB9F080914701D6
:1017800090914801892B89F480916B0190916C01B3
:10179000019683709078992324F401978C6F9F6F42
:1017A000019690936C0180936B0165E070E082E09C
:1017B00090E00E946A00892B39F080914701909156
:1017C0004801892B09F424CE08950CD0EBC0E3D056
:1017D00040F0DAD030F021F45F3F19F0CCC0511165
:1017E00015C1CFC0F0D098F39923C9F35523B1F3B5
:1017F000951B550BBB27AA2762177307840738F080
:101800009F5F5F4F220F331F441FAA1FA9F333D0DE
:101810000E2E3AF0E0E830D091505040E695001C92
:10182000CAF729D0FE2F27D0660F771F881FBB1F4E
:10183000261737074807AB07B0E809F0BB0B802D28
:10184000BF01FF2793585F4F2AF09E3F510568F074
:1018500092C0DCC05F3FECF3983EDCF38695779551
:101860006795B795F7959F5FC9F7880F911D969576
:10187000879597F90895E1E0660F771F881FBB1FD2
:10188000621773078407BA0720F0621B730B840B7F
:10189000BA0BEE1F88F7E095089504D06894B11153
:1018A000B5C0089598D088F09F5790F0B92F992728
:1018B000B751A0F0D1F0660F771F881F991F1AF05B
:1018C000BA95C9F712C0B13081F09FD0B1E0089548
:1018D0009CC0672F782F8827B85F39F0B93FCCF3C9
:1018E000869577956795B395D9F73EF49095809551
:1018F000709561957F4F8F4F9F4F0895E89409C071
:1019000097FB3EF490958095709561957F4F8F4F32
:101910009F4F9923A9F0F92F96E9BB279395F69548
:10192000879577956795B795F111F8CFFAF4BB0FC6
:1019300011F460FF1BC06F5F7F4F8F4F9F4F16C02A
:10194000882311F096E911C0772321F09EE8872FB4
:10195000762F05C0662371F096E8862F70E060E070
:101960002AF09A95660F771F881FDAF7880F9695E9
:10197000879597F9089597F99F6780E870E060E090
:1019800008959FEF80EC089500240A941616170618
:1019900018060906089500240A9412161306140660
:1019A00005060895092E0394000C11F4882352F0C3
:1019B000BB0F40F4BF2B11F460FF04C06F5F7F4F7B
:1019C0008F4F9F4F089557FD9058440F551F59F062
:1019D0005F3F71F04795880F97FB991F61F09F3F1C
:1019E00079F087950895121613061406551FF2CF45
:1019F0004695F1DF08C0161617061806991FF1CF95
:101A000086957105610508940895E894BB276627BB
:101A10007727CB0197F908950BD0C4CFB5DF28F015
:101A2000BADF18F0952309F0A6CFABCF1124EECF83
:101A3000CADFA0F3959FD1F3950F50E0551F629F29
:101A4000F001729FBB27F00DB11D639FAA27F00D17
:101A5000B11DAA1F649F6627B00DA11D661F829F3E
:101A60002227B00DA11D621F739FB00DA11D621F23
:101A7000839FA00D611D221F749F3327A00D611D40
:101A8000231F849F600D211D822F762F6A2F112422
:101A90009F5750408AF0E1F088234AF0EE0FFF1F75
:101AA000BB1F661F771F881F91505040A9F79E3FAC
:101AB000510570F060CFAACF5F3FECF3983EDCF3A6
:101AC000869577956795B795F795E7959F5FC1F7E9
:101AD000FE2B880F911D9695879597F9089597FB92
:101AE000072E16F4009406D077FD08D02DD007FC01
:101AF00005D03EF4909581959F4F0895709561951E
:101B00007F4F0895A1E21A2EAA1BBB1BFD010DC039
:101B1000AA1FBB1FEE1FFF1FA217B307E407F5079D
:101B200020F0A21BB30BE40BF50B661F771F881F79
:101B3000991F1A9469F760957095809590959B010F
:101B4000AC01BD01CF010895AA1BBB1B51E107C029
:101B5000AA1FBB1FA617B70710F0A61BB70B881F3D
:101B6000991F5A95A9F780959095BC01CD010895CC
:101B70000F931F93CF93DF93CDB7DEB72E970FB69A
:101B8000F894DEBF0FBECDBF0D891E8986E08C8321
:101B90001A8309838FEF9FE79E838D83AE01475E93
:101BA0005F4F6F89788DCE01019610D0EF81F88557
:101BB000E00FF11F10822E960FB6F894DEBF0FBE15
:101BC000CDBFDF91CF911F910F9108952F923F923A
:101BD0004F925F926F927F928F929F92AF92BF923D
:101BE000CF92DF92EF92FF920F931F93CF93DF93E9
:101BF000CDB7DEB72B970FB6F894DEBF0FBECDBFC3
:101C00006C017B018A01FC0117821682838181FFAE
:101C1000BFC1CE0101963C01F6019381F70193FD0E
:101C2000859193FF81917F01882309F4ADC18532AD
:101C300039F493FD859193FF81917F01853221F4E1
:101C4000B60190E0D6D1E8CF912C212C312CFFE1C8
:101C5000F315D8F08B3279F038F4803279F0833292
:101C6000A1F4232D20611DC08D3261F0803369F411
:101C7000232D216016C0832D8260382EE32DE46071
:101C80003E2E2AC0F32DF8601DC037FC2DC020ED7C
:101C9000280F2A3040F08E32B9F436FC75C1232D5E
:101CA0002064322E19C036FE06C08AE0989E200DB0
:101CB0001124922E11C0EAE02E9E200D1124222E16
:101CC000F32DF0623F2E08C08C3621F4832D8068FE
:101CD000382E02C0883641F4F70193FD859193FFB9
:101CE00081917F018111B3CF982F9F7D95549330BF
:101CF00028F40C5F1F4F9FE399830DC0833631F0AA
:101D0000833771F0833509F055C020C0F801808118
:101D100089830E5F1F4F88248394912C530112C036
:101D20002801F2E04F0E511CF801A080B18036FE70
:101D300003C0692D70E002C06FEF7FEFC5014ED187
:101D40004C018201F32DFF773F2E15C0280122E0C0
:101D5000420E511CF801A080B18036FE03C0692DEF
:101D600070E002C06FEF7FEFC5012DD14C01F32D64
:101D7000F0683F2E820133FC19C0822D90E0881656
:101D80009906A0F4B60180E290E033D12A94F5CF11
:101D9000F50137FC859137FE81915F01B60190E036
:101DA00028D121102A9421E0821A910881149104EB
:101DB00079F7E1C0843611F0893639F5F80137FE3C
:101DC00007C060817181828193810C5F1F4F08C0C1
:101DD00060817181072E000C880B990B0E5F1F4FDD
:101DE000F32DFF763F2E97FF09C090958095709553
:101DF00061957F4F8F4F9F4FF0683F2E2AE030E074
:101E0000A30133D1882E861844C0853731F4232DA1
:101E10002F7EB22E2AE030E025C0932D997FB92E77
:101E20008F36C1F018F4883579F0AEC0803719F0DC
:101E3000883721F0A9C0E92FE061BE2EB4FE0DC0A5
:101E4000FB2DF460BF2E09C034FE0AC0292F266086
:101E5000B22E06C028E030E005C020E130E002C02C
:101E600020E132E0F801B7FE07C060817181828114
:101E700093810C5F1F4F06C06081718180E090E00C
:101E80000E5F1F4FA301F1D0882E8618FB2DFF7720
:101E90003F2E36FE0DC0232D2E7FA22E891458F41E
:101EA00034FE0BC032FC09C0832D8E7EA82E05C0E7
:101EB000B82CA32C03C0B82C01C0B92CA4FE0FC0B1
:101EC000FE01E80DF11D8081803321F49A2D997E69
:101ED000A92E09C0A2FE06C0B394B39404C08A2DF3
:101EE000867809F0B394A3FC10C0A0FE06C0B2141B
:101EF00080F4280C922C9B180DC0B21458F4B60133
:101F000080E290E076D0B394F8CFB21418F42B1896
:101F100002C0982C212CA4FE0FC0B60180E390E0F3
:101F200068D0A2FE16C0A1FC03C088E790E002C002
:101F300088E590E0B6010CC08A2D867851F0A1FEAC
:101F400002C08BE201C080E2A7FC8DE2B60190E006
:101F500050D0891430F4B60180E390E04AD09A94CE
:101F6000F8CF8A94F301E80DF11D8081B60190E06D
:101F700040D08110F6CF222009F44ECEB60180E287
:101F800090E037D02A94F7CFF6018681978102C07E
:101F90008FEF9FEF2B960FB6F894DEBF0FBECDBF2D
:101FA000DF91CF911F910F91FF90EF90DF90CF9035
:101FB000BF90AF909F908F907F906F905F904F9069
:101FC0003F902F900895FC010590615070400110E2
:101FD000D8F7809590958E0F9F1F0895FC01615052
:101FE000704001900110D8F7809590958E0F9F1F3B
:101FF00008950F931F93CF93DF93FB01238121FD5E
:1020000003C08FEF9FEF2CC022FF16C0468157817F
:10201000248135814217530744F4A081B1819D0189
:102020002F5F3F4F318320838C93268137812F5F31
:102030003F4F3783268314C08B01EC01FB010084E2
:10204000F185E02D0995892BE1F6D80116968D9141
:102050009C911797019617969C938E931697CE0195
:10206000DF91CF911F910F910895FA01AA2728308F
:1020700051F1203181F1E8946F936E7F6E5F7F4F55
:102080008F4F9F4FAF4FB1E03ED0B4E03CD0670FD1
:10209000781F891F9A1FA11D680F791F8A1F911D24
:1020A000A11D6A0F711D811D911DA11D20D009F474
:1020B00068943F912AE0269F11243019305D3193B6
:1020C000DEF6CF010895462F4770405D4193B3E09F
:1020D0000FD0C9F7F6CF462F4F70405D4A3318F046
:1020E000495D31FD4052419302D0A9F7EACFB4E0F7
:1020F000A6959795879577956795BA95C9F70097AF
:102100006105710508959B01AC010A2E069457954F
:10211000479537952795BA95C9F7620F731F841FA6
:0A212000951FA01D0895F894FFCF4D
:10212A000000000200000000940900000000010005
:10213A003F065B4F666D7D277F67806469733A202F
:0A214A002564636D0A002573000090
:00000001FF
