:1000000077C0000093C0000091C000008FC00000C6
:100010008DC000007BC30000E5C300004FC400009A
:1000200085C0000083C0000081C000007FC00000C8
:100030007DC000007BC0000079C0000077C00000D8
:100040008AC1000073C000008BC200006FC00000B6
:100050006DC000006BC0000069C0000067C00000F8
:1000600065C0000063C0000061C000005FC0000008
:100070005DC000005BC000000CC3000057C0000062
:1000800055C0000053C0000051C0000043015001A2
:10009000500150013F0150015001500150015001E9
:1000A0004701500150015001500150014B014F01D7
:1000B00050015001500150015001500150015001B8
:1000C00050015001500150015001500143015001B5
:1000D000500150013F0150015001500150015001A9
:1000E0004701500150015001500150014B014F0197
:1000F00011241FBECFEFD0E1DEBFCDBF11E0A0E0E5
:10010000B1E0ECEDF3E100E00BBF02C007900D920F
:10011000A637B107D9F724E0A6E7B1E001C01D92E8
:10012000A23FB207E1F763D10C94EC0969CF8AB31F
:100130008F7B8ABB0895CF92DF92EF92FF9229B313
:10014000422F50E021E030E002C0220F331F6A95B9
:10015000E2F724233523409183015091840160917B
:10016000850170918601FC01EE0FFF1FEE0FFF1F4E
:10017000E958FE4FC080D180E280F3804C195D09C0
:100180006E097F094F3051056105710558F14091A5
:100190008301509184016091850170918601880FDF
:1001A000991F880F991FFC01E958FE4F4083518326
:1001B000628373832115310551F08091760181119D
:1001C00006C081E08093760180E090E013C08091CA
:1001D0007601813051F4232B59F41092760181E09D
:1001E00090E008C080E090E005C080E090E002C0B0
:1001F00080E090E0FF90EF90DF90CF9008958FEF38
:100200008ABB1BBA089508952091970130919801F7
:1002100081E090E02531310510F080E090E090938E
:10022000820180938101209195013091960181E0B6
:1002300090E02531310510F080E090E0909380014E
:1002400080937F01209193013091940181E090E0AF
:100250002531310510F080E090E090937E0180938D
:100260007D010895E091B9048E2F90E0FC01E254E5
:10027000F109E233F105A0F4EA5BFF4FA0C584EF7A
:1002800091E037C1089584EF91E025C108958CEB8A
:1002900092E04BC108958CEB92E039C1089553C1AF
:1002A000089580917E018F9380917D018F9380913D
:1002B00080018F9380917F018F93809182018F9332
:1002C000809181018F938CE191E09F938F9394D5DE
:1002D00080918101909182012DB73EB7285F3F4FF9
:1002E0000FB6F8943EBF0FBE2DBF8130910589F443
:1002F00020917F01309180012130310551F420910E
:100300007D0130917E01232B21F48CEB92E0FFC024
:100310000895892B81F480917F019091800101974C
:1003200051F480917D0190917E01019721F48CEB35
:1003300092E0FBC0089580917F0190918001009729
:1003400021F484EF91E0D5C00895019719F484EF6A
:1003500091E0C1C008951F920F920FB60F92112421
:100360008F939F93AF93BF9386E082BF8091830169
:1003700090918401A0918501B09186010196A11D03
:10038000B11D8093830190938401A0938501B09364
:100390008601BF91AF919F918F910F900FBE0F90EB
:1003A0001F901895009731F460E070E08AE191E0C9
:1003B00045C308958130910531F461E070E088E132
:1003C00091E03CC30895029729F462E070E086E171
:1003D00091E034C3089586E082BF83B7887F83BFEE
:1003E00083B7846083BF87B7816087BF089542D198
:1003F00088E091E09093EF048093EE048EE391E027
:100400000ED5FDDE94DEE7DF71D1C4D239D04CD0F9
:100410007894C0E0D0E066E070E080E090E08BDEB1
:10042000892B89F081E090E020917B0130917C0163
:10043000232B11F080E090E090937C0180937B016E
:10044000892B09F480D020917B0130917C012130EF
:10045000310549F4CE01A6DFD7DECE01019663E077
:1004600070E09AD4EC01E0917B01F0917C01EE0FF9
:10047000FF1FE050FF4F0190F081E02D0995CBCF99
:100480008EB583608EBD8FB582608FBD8EB588615D
:100490008EBD8FB580688FBD8FB580628FBD8FEFA9
:1004A00093E097BD86BD089587B38F7987BB87B3E7
:1004B000806687BBE1E6F0E08081807F8083808179
:1004C0008F608083E2E6F0E08081807F808380819E
:1004D0008A60808308959C01E2E6F0E09081907F3D
:1004E000908390819560908339BD28BD3BBD2ABD26
:1004F00008959C01E2E6F0E09081907F90839081E6
:100500009A60908339BD28BD3BBD2ABD08959C01EA
:10051000E2E6F0E09081907F908390819A609083F2
:100520003BBD2ABD19BC18BC08959C01E2E6F0E071
:100530009081907F908390819A6090831BBC1ABCBD
:1005400039BD28BD0895E2E6F0E08081807F808398
:1005500080818F6080831BBC1ABC19BC18BC0895B5
:100560001F920F920FB60F9211240BB60F922F937A
:100570003F934F935F936F937F938F939F93AF932B
:10058000BF93EF93FF93CF93DF931F92CDB7DEB767
:100590008CB1898380918B0190918C0101962AE026
:1005A00030E0B901F9D3FC018091890190918A0171
:1005B000B901F2D3E817F90709F446C089818A30F6
:1005C00019F089818D3021F520918B0130918C01BA
:1005D000809187019091880140E5429FF001439FFF
:1005E000F00D1124E756FE4FE80FF91F108210920C
:1005F00088011092870180918B0190918C01019666
:100600006AE070E0C9D390938C0180938B011CC089
:1006100060918B0170918C0180918701909188018C
:100620009C012F5F3F4F30938801209387014981C0
:1006300050E5569F9001579F300D112427563E4F8D
:10064000F901E80FF91F40830F90DF91CF91FF91DF
:10065000EF91BF91AF919F918F917F916F915F913A
:100660004F913F912F910F900BBE0F900FBE0F90A7
:100670001F901895109290008FEC89B98BB1826011
:100680008BB98AB188698AB908955D9BFECF8CB910
:1006900008951F920F920FB60F9211240BB60F926E
:1006A0002F933F934F935F936F937F938F939F937A
:1006B000AF93BF93EF93FF9380919C008093B90415
:1006C0008091B904E2DFFF91EF91BF91AF919F91CB
:1006D0008F917F916F915F914F913F912F910F90EB
:1006E0000BBE0F900FBE0F901F90189510929800A0
:1006F0008FEC80939900EBE9F0E080818260808349
:10070000EAE9F0E080818869808308951F920F9262
:100710000FB60F9211240BB60F922F933F934F9366
:100720005F936F937F938F939F93AF93BF93EF9359
:10073000FF930C9B09C08091880090918900909351
:100740009201809391013BC0609188007091890073
:100750008091910190919201681B790B80E090E06B
:100760002AD220E034E244E759E4B3D220E030E07A
:1007700040E854E4AED220E034E244E75BE482D1C6
:1007800020E030E048E652E47DD1E4D17093980156
:100790006093970181E090E090931B0180931A0190
:1007A00080919701909198019F938F9385E491E0B8
:1007B0009F938F9321D30F900F900F900F90FF91E5
:1007C000EF91BF91AF919F918F917F916F915F91C9
:1007D0004F913F912F910F900BBE0F900FBE0F9036
:1007E0001F9018951F920F920FB60F9211240BB6FF
:1007F0000F922F933F934F935F936F937F938F93BA
:100800009F93AF93BF93EF93FF930D9B09C080918C
:100810008800909189009093900180938F013BC054
:10082000609188007091890080918F019091900172
:10083000681B790B80E090E0BED120E034E244E711
:1008400059E447D220E030E040E854E442D220E0CE
:1008500034E244E75BE416D120E030E048E652E4BD
:1008600011D178D1709396016093950181E090E069
:1008700090931901809318018091950190919601B0
:100880009F938F9384E591E09F938F93B5D20F90C0
:100890000F900F900F90FF91EF91BF91AF919F91AB
:1008A0008F917F916F915F914F913F912F910F9019
:1008B0000BBE0F900FBE0F901F9018951F920F92B6
:1008C0000FB60F9211240BB60F922F933F934F93B5
:1008D0005F936F937F938F939F93AF93BF93EF93A8
:1008E000FF930E9B09C0809188009091890090939E
:1008F0008E0180938D013BC06091880070918900CA
:1009000080918D0190918E01681B790B80E090E0C1
:1009100052D120E034E244E759E4DBD120E030E07A
:1009200040E854E4D6D120E034E244E75BE4AAD0C6
:1009300020E030E048E652E4A5D00CD17093940159
:100940006093930181E090E09093170180931601EA
:1009500080919301909194019F938F9383E691E00E
:100960009F938F9349D20F900F900F900F90FF910C
:10097000EF91BF91AF919F918F917F916F915F9117
:100980004F913F912F910F900BBE0F900FBE0F9084
:100990001F9018958AB387608ABB82B18F7882B91D
:1009A0008AB785618ABF10928B00EAE8F0E0108276
:1009B000109289001092880080818560808389B7B9
:1009C000806789BF0895CF93DF9300D0CDB7DEB79E
:1009D0009A83898329813A8181E090E0AC0102C049
:1009E000440F551F2A95E2F79A01209530953BB3A5
:1009F00023232BBB55E05A95F1F7000029813A815A
:100A0000AC0102C0440F551F2A95E2F79A013BB38F
:100A1000232B2BBB50E55A95F1F729813A8102C06F
:100A2000880F991F2A95E2F7809590959BB38923AB
:100A30008BBB0F900F90DF91CF910895CF93DF93F1
:100A400000D0CDB7DEB77A836983FC012081318184
:100A50002130310591F41182108289819A81B3DFAE
:100A60008AEB94E09F938F9382E791E09F938F931B
:100A7000C3D10F900F900F900F900F900F90DF91B8
:100A8000CF9108950CD0EBC0E3D040F0DAD030F035
:100A900021F45F3F19F0CCC0511115C1CFC0F0D087
:100AA00098F39923C9F35523B1F3951B550BBB2735
:100AB000AA2762177307840738F09F5F5F4F220FE2
:100AC000331F441FAA1FA9F333D00E2E3AF0E0E8DB
:100AD00030D091505040E695001CCAF729D0FE2F27
:100AE00027D0660F771F881FBB1F261737074807B9
:100AF000AB07B0E809F0BB0B802DBF01FF2793586F
:100B00005F4F2AF09E3F510568F092C0DCC05F3F06
:100B1000ECF3983EDCF3869577956795B795F79556
:100B20009F5FC9F7880F911D9695879597F908954E
:100B3000E1E0660F771F881FBB1F621773078407EA
:100B4000BA0720F0621B730B840BBA0BEE1F88F7F9
:100B5000E095089504D06894B111B5C0089598D077
:100B600088F09F5790F0B92F9927B751A0F0D1F096
:100B7000660F771F881F991F1AF0BA95C9F712C020
:100B8000B13081F09FD0B1E008959CC0672F782FDD
:100B90008827B85F39F0B93FCCF38695779567958C
:100BA000B395D9F73EF490958095709561957F4FF8
:100BB0008F4F9F4F0895E89409C097FB3EF490959E
:100BC0008095709561957F4F8F4F9F4F9923A9F026
:100BD000F92F96E9BB279395F695879577956795B5
:100BE000B795F111F8CFFAF4BB0F11F460FF1BC0F9
:100BF0006F5F7F4F8F4F9F4F16C0882311F096E98C
:100C000011C0772321F09EE8872F762F05C0662339
:100C100071F096E8862F70E060E02AF09A95660FF2
:100C2000771F881FDAF7880F9695879597F90895AB
:100C300097F99F6780E870E060E008959FEF80EC8F
:100C4000089500240A941616170618060906089532
:100C500000240A9412161306140605060895092E98
:100C60000394000C11F4882352F0BB0F40F4BF2B07
:100C700011F460FF04C06F5F7F4F8F4F9F4F089547
:100C800057FD9058440F551F59F05F3F71F047953D
:100C9000880F97FB991F61F09F3F79F08795089522
:100CA000121613061406551FF2CF4695F1DF08C041
:100CB000161617061806991FF1CF8695710561055E
:100CC00008940895E894BB2766277727CB0197F906
:100CD00008950BD0C4CFB5DF28F0BADF18F0952304
:100CE00009F0A6CFABCF1124EECFCADFA0F3959FBA
:100CF000D1F3950F50E0551F629FF001729FBB2703
:100D0000F00DB11D639FAA27F00DB11DAA1F649FAE
:100D10006627B00DA11D661F829F2227B00DA11D61
:100D2000621F739FB00DA11D621F839FA00D611DE7
:100D3000221F749F3327A00D611D231F849F600D08
:100D4000211D822F762F6A2F11249F5750408AF041
:100D5000E1F088234AF0EE0FFF1FBB1F661F771FCD
:100D6000881F91505040A9F79E3F510570F060CF09
:100D7000AACF5F3FECF3983EDCF3869577956795B5
:100D8000B795F795E7959F5FC1F7FE2B880F911DEB
:100D90009695879597F9089597FB072E16F400947A
:100DA00006D077FD08D014D007FC05D03EF490950E
:100DB00081959F4F0895709561957F4F0895EE0F2F
:100DC000FF1F0024001C0BBE0790F691E02D099434
:100DD000AA1BBB1B51E107C0AA1FBB1FA617B70761
:100DE00010F0A61BB70B881F991F5A95A9F780957D
:100DF0009095BC01CD010895CF93DF93CDB7DEB7B9
:100E0000AE014B5F5F4FFA0161917191AF0180912B
:100E1000EE049091EF0433D0DF91CF9108950F93BA
:100E20001F93CF93DF93E091EE04F091EF042381C1
:100E300021FF1BC08C01D0E0C0E0F80181918F013F
:100E40006091EE047091EF04DB011896ED91FC9136
:100E50001997882331F00995892B79F3DFEFCFEFCC
:100E6000ECCF8AE00995892B19F08FEF9FEF02C034
:100E70008D2F9C2FDF91CF911F910F9108952F926D
:100E80003F924F925F926F927F928F929F92AF921A
:100E9000BF92CF92DF92EF92FF920F931F93CF9367
:100EA000DF93CDB7DEB72B970FB6F894DEBF0FBE3A
:100EB000CDBF6C017B018A01FC0117821682838100
:100EC00081FFBFC1CE0101963C01F6019381F7017C
:100ED00093FD859193FF81917F01882309F4ADC132
:100EE000853239F493FD859193FF81917F0185329D
:100EF00021F4B60190E0D6D1E8CF912C212C312CF1
:100F0000FFE1F315D8F08B3279F038F4803279F0C4
:100F10008332A1F4232D20611DC08D3261F0803316
:100F200069F4232D216016C0832D8260382EE32DB5
:100F3000E4603E2E2AC0F32DF8601DC037FC2DC0A2
:100F400020ED280F2A3040F08E32B9F436FC75C1FE
:100F5000232D2064322E19C036FE06C08AE0989EEA
:100F6000200D1124922E11C0EAE02E9E200D112496
:100F7000222EF32DF0623F2E08C08C3621F4832DF3
:100F80008068382E02C0883641F4F70193FD8591C0
:100F900093FF81917F018111B3CF982F9F7D95544D
:100FA000933028F40C5F1F4F9FE399830DC0833665
:100FB00031F0833771F0833509F055C020C0F80156
:100FC000808189830E5F1F4F88248394912C530165
:100FD00012C02801F2E04F0E511CF801A080B18030
:100FE00036FE03C0692D70E002C06FEF7FEFC501D0
:100FF0004ED14C018201F32DFF773F2E15C0280101
:1010000022E0420E511CF801A080B18036FE03C0E0
:10101000692D70E002C06FEF7FEFC5012DD14C014B
:10102000F32DF0683F2E820133FC19C0822D90E031
:1010300088169906A0F4B60180E290E033D12A9494
:10104000F5CFF50137FC859137FE81915F01B6013F
:1010500090E028D121102A9421E0821A910881146D
:10106000910479F7E1C0843611F0893639F5F80139
:1010700037FE07C060817181828193810C5F1F4FB1
:1010800008C060817181072E000C880B990B0E5FE0
:101090001F4FF32DFF763F2E97FF09C09095809547
:1010A000709561957F4F8F4F9F4FF0683F2E2AE0DC
:1010B00030E0A30133D1882E861844C0853731F43F
:1010C000232D2F7EB22E2AE030E025C0932D997F6C
:1010D000B92E8F36C1F018F4883579F0AEC080375C
:1010E00019F0883721F0A9C0E92FE061BE2EB4FEC7
:1010F0000DC0FB2DF460BF2E09C034FE0AC0292F9D
:101100002660B22E06C028E030E005C020E130E0C5
:1011100002C020E132E0F801B7FE07C060817181B2
:10112000828193810C5F1F4F06C06081718180E0D6
:1011300090E00E5F1F4FA301F1D0882E8618FB2D83
:10114000FF773F2E36FE0DC0232D2E7FA22E891451
:1011500058F434FE0BC032FC09C0832D8E7EA82EBD
:1011600005C0B82CA32C03C0B82C01C0B92CA4FE18
:101170000FC0FE01E80DF11D8081803321F49A2D0E
:10118000997EA92E09C0A2FE06C0B394B39404C0F0
:101190008A2D867809F0B394A3FC10C0A0FE06C087
:1011A000B21480F4280C922C9B180DC0B21458F481
:1011B000B60180E290E076D0B394F8CFB21418F480
:1011C0002B1802C0982C212CA4FE0FC0B60180E37E
:1011D00090E068D0A2FE16C0A1FC03C088E790E0B2
:1011E00002C088E590E0B6010CC08A2D867851F0E7
:1011F000A1FE02C08BE201C080E2A7FC8DE2B60135
:1012000090E050D0891430F4B60180E390E04AD0E9
:101210009A94F8CF8A94F301E80DF11D8081B6010C
:1012200090E040D08110F6CF222009F44ECEB601D6
:1012300080E290E037D02A94F7CFF601868197813B
:1012400002C08FEF9FEF2B960FB6F894DEBF0FBE54
:10125000CDBFDF91CF911F910F91FF90EF90DF9065
:10126000CF90BF90AF909F908F907F906F905F9046
:101270004F903F902F900895FC0105906150704071
:101280000110D8F7809590958E0F9F1F0895FC014F
:101290006150704001900110D8F7809590958E0FA5
:1012A0009F1F08950F931F93CF93DF93FB0123811B
:1012B00021FD03C08FEF9FEF2CC022FF16C0468197
:1012C0005781248135814217530744F4A081B181AD
:1012D0009D012F5F3F4F318320838C93268137817F
:1012E0002F5F3F4F3783268314C08B01EC01FB0136
:1012F0000084F185E02D0995892BE1F6D801169639
:101300008D919C911797019617969C938E931697A3
:10131000CE01DF91CF911F910F910895FA01AA2775
:10132000283051F1203181F1E8946F936E7F6E5F28
:101330007F4F8F4F9F4FAF4FB1E03ED0B4E03CD0D6
:10134000670F781F891F9A1FA11D680F791F8A1FB9
:10135000911DA11D6A0F711D811D911DA11D20D020
:1013600009F468943F912AE0269F11243019305DDA
:101370003193DEF6CF010895462F4770405D4193CB
:10138000B3E00FD0C9F7F6CF462F4F70405D4A3318
:1013900018F0495D31FD4052419302D0A9F7EACFE0
:1013A000B4E0A6959795879577956795BA95C9F70F
:1013B00000976105710508959B01AC010A2E069402
:1013C0005795479537952795BA95C9F7620F731FBB
:0C13D000841F951FA01D0895F894FFCF06
:1013DC003201510103010401000000020000000071
:1013EC004503000000000100010001006C656674FB
:1013FC002C2063656E7465722C207269676874208A
:10140C003A2025642C2025642C2025640A00535492
:10141C004152540D00494E5434203A202564206327
:10142C006D0D0A00494E5435203A20256420636D19
:10143C000D0A00494E5436203A20256420636D0D68
:06144C000A0025730000F8
:00000001FF
