S021000030382E50574D5F534552564F5F5049455A4F5F42555A5A45522E7372656364
S113000045C0000060C000005EC000005CC000008D
S11300105AC0000058C0000056C0000054C0000080
S113002052C0000050C000004EC000004CC0000090
S11300304AC0000048C0000046C0000044C00000A0
S1130040B3C0000040C000003EC000003CC000003F
S11300503AC0000038C0000036C0000034C00000C0
S113006032C0000030C000002EC000002CC00000D0
S11300702AC0000028C0000026C0000024C00000E0
S113008022C0000020C000001EC0000011241FBEBA
S1130090CFEFD0E1DEBFCDBF11E0A0E0B1E0EAE8F0
S11300A0F3E000E00BBF02C007900D92A23BB10742
S11300B0D9F721E0A2EBB1E001C01D92AA3CB2073E
S11300C0E1F7F7D060C19CCF81B3877881BB0895F5
S11300D0CF92DF92EF92FF9220B3422F50E021E0C3
S11300E030E002C0220F331F6A95E2F72423352340
S11300F04091C6015091C7016091C8017091C90136
S1130100FC01EE0FFF1FEE0FFF1FEA54FE4FC080ED
S1130110D180E280F3804C195D096E097F094F306C
S113012051056105710598F14091C6015091C701CF
S11301306091C8017091C901FC01EE0FFF1FEE0F21
S1130140FF1FEA54FE4F408351836283738321155A
S1130150310571F0FC01EE54FE4F4081411108C09D
S1130160FC01EE54FE4F21E0208380E090E017C0B4
S1130170FC01EE54FE4F4081413061F4232B69F4BD
S1130180FC01EE54FE4F108281E090E008C080E054
S113019090E005C080E090E002C080E090E0FF9035
S11301A0EF90DF90CF9008951F920F920FB60F92A9
S11301B011248F939F93AF93BF9386E082BF809166
S11301C0C6019091C701A091C801B091C9010196DF
S11301D0A11DB11D8093C6019093C701A093C801CE
S11301E0B093C901BF91AF919F918F910F900FBEB2
S11301F00F901F9018950F931F93CF93DF93C6E82A
S1130200D0E087EE93E09983888386E490E083D0FE
S113021083EF91E09983888386E490E07CD00FEFAC
S11302201FEF1983088386E490E075D0198308834F
S113023086E490E070D01982188288EB9BE06BD042
S1130240DF91CF911F910F910895CF93DF93C6E86B
S1130250D0E086EF9EE09983888386E490E05BD0CB
S11302608EED9BE09983888386E490E054D086EFFA
S113027099E09983888386E490E04DD08CE097E000
S11302809983888386E490E046D01982188288EBAB
S11302909BE041D0DF91CF91089586E082BF83B780
S11302A0887F83BF83B7846083BF87B7816087BF3C
S11302B008950ADF20D0F1DF789463E070E080E0F5
S11302C090E006DF892B11F096DF08C064E070E04F
S11302D081E090E0FDDE892B09F0B7DF65E070E096
S11302E082E090E0F5DE892B41F36AE571E080E07D
S11302F091E01FD0E2CF82B1886082B980E480931C
S11303008B008AE080938A0010928C001092870000
S113031010928600089507C08FE99FE00197F1F7D6
S113032000C00000C9019C0121503109892BA1F7AB
S11303300895EF92FF920F931F93CF93DF93EC01F5
S11303407B0114C006E810E0F80191838083F70173
S1130350819191917F01DFDF2296F8011182108251
S11303608FE39CE90197F1F700C00000888199812F
S11303708033EFE29E0731F7DF91CF911F910F9108
S10D0380FF90EF900895F894FFCF6A
S113038AF4037004AF047004BC035303BC03F40302
S113039ABC03F602CC02F6022403F602FA0138027E
S11303AA5A023802FA0138025A023802DE013802C5
S11303BADE017E023802FA0138027E0238027E0227
S11303CA3802FA0138027E0238027E023802FA0141
S11303DA38027E02A402F6020000560056005600B5
S11303EA560055015600560056005600550156004F
S11303FA560056005600560056005600560056003F
S113040A5600560056005501AA00AA001C001C00FA
S113041A1C00AA00AA00AA001C001C001C00AA00B6
S113042AAA00AA001C001C001C00AA00AA00AA0018
S105043AAA0210
S9030000FC
