S016000030312E4C45445F434F4E54524F4C2E737265632A
S113000045C0000060C000005EC000005CC000008D
S11300105AC0000058C0000056C0000054C0000080
S113002052C0000050C000004EC000004CC0000090
S11300304AC0000048C0000046C0000044C00000A0
S113004042C0000040C000003EC000003CC00000B0
S11300503AC0000038C0000036C0000034C00000C0
S113006032C0000030C000002EC000002CC00000D0
S11300702AC0000028C0000026C0000024C00000E0
S113008022C0000020C000001EC0000011241FBEBA
S1130090CFEFD0E1DEBFCDBF11E0A0E0B1E0E0E7FB
S11300A0F2E000E00BBF02C007900D92A031B1074F
S11300B0D9F721E0A0E1B1E001C01D92A431B2075B
S11300C0E1F798D0D3C09CCF81B3877881BB0895E2
S11300D020B3422F50E021E030E002C0220F331F52
S11300E06A95E2F72423352321153105A1F0FC019B
S11300F0E05FFE4F408141110EC0EFE5FAEE31970B
S1130100F1F700C00000FC01E05FFE4F21E0208316
S113011080E090E00895FC01E05FFE4F40814130B3
S113012079F4232B81F4EFE5FAEE3197F1F700C06F
S11301300000FC01E05FFE4F108281E090E0089532
S113014080E090E0089580E090E0089520E030E0C1
S11301500CC02417350739F0F901EE0FFF1FE60F25
S1130160F71F118210822F5F3F4F243031058CF32B
S1130170440F551FFB01E40FF51F208131812F5FD0
S11301803F4F318320832430310511F411821082D2
S11301900190F081E02DEE0FFF1FE80FF91F019091
S11301A0F081E02D0995089520E030E009C0F901BF
S11301B0EE0FFF1FE80FF91F118210822F5F3F4FD0
S11301C024303105A4F308C008958FEF8ABB1BBA0D
S11301D008958FEF8BBB08951BBA08958FE08BBBF6
S11301E0089580EF8BBB089585E58BBB08958AEA5B
S11301F08BBB0895CF93DF93CDB7DEB728970FB6A7
S1130200F894DEBF0FBECDBFFE01319688E0DF015A
S11302101D928A95E9F758DFD8DF63E070E080E04B
S113022090E056DF892B41F040E050E0BE016F5F63
S11302307F4F88E091E08ADF64E070E081E090E045
S113024047DF892B41F041E050E0BE016F5F7F4FF3
S113025080E091E07BDF66E070E083E090E038DFEF
S1130260892BD9F2CE0101969FDFD7CFF894FFCF27
S1130270EC00F400F700E900EC00E900EE00F10006
S9030000FC
